:10000000C6EF05F025322E3266206F43000054689B
:1000100065726D6F636F75706C65206E6F742063B1
:100020006F6E6E65637465640D0A0000EA6A500EB7
:10003000E96EEF500EE00F0E016E006A002EFED743
:10004000012EFBD78F0E006E002EFED70000EF2E84
:10005000F2D712005738F00B006E0F0E8C14001000
:100060008C6E00008C80070E006E002EFED700D034
:100070008C9012008350006E00380F0B016E12003E
:100080000F0E9514F009956E8C8400008C80000092
:10009000F1DF01C057F08C9000008C80030E006EE1
:1000A000002EFED700D0E6DF01C056F08C900F0E78
:1000B0009514956E5738006EF00E001600505610CD
:1000C000016E68EF00F09590959295948C92D8D738
:1000D00001C056F001BEFBD78C9254B08C82000058
:1000E0008C9400008C905538566E0F0E561656C0E4
:1000F00057F0B0DF55500F0B566E576EABDF120046
:10010000280E476E0C0E486E010E496E060E4A6EA2
:100110008C908C928C940F0E9514956E9590959270
:1001200095940F0E506E82DF010E466E4650030806
:1001300008E3030E576E8EDF050E506E77DF462AFA
:10014000F5D7020E576E86DF050E506E6FDF466ADA
:10015000465003080FE3036A4650470FE96E000E4E
:100160000320EA6EEFCF4BF0546A4BC055F0ABDF83
:10017000462AEED7F8EF05F0080E016E110E006E5C
:10018000002EFED78A929392110E006E002EFED79B
:1001900048368A90D8B09380D8A09390938281A259
:1001A000FED7012EEBD7110E006E002EFED78A92DD
:1001B000939200009380110E006E002EFED7110E58
:1001C000006E002EFED7938281A2FED7016A110E27
:1001D000006E002EFED781B001808A9293928A90A1
:1001E000939012009380110E006E002EFED7938222
:1001F000110E006E002EFED78A909390110E006EA5
:10020000002EFED78A9293923C0E486EB5DF46C010
:1002100048F0B2DF47C048F0AFDF93900000938210
:1002200081A2FED7110E006E002EFED700D0000076
:100230009380110E006E002EFED71200020E466E45
:10024000476AD0DF640E506EF1DE466A100E476ECC
:10025000C9DF640E506EEADE010E466E200E476E58
:10026000C1DF640E506EE2DEFAEF05F0080E496E53
:1002700000C04AF09380110E006E002EFED79382CC
:1002800081A2FED781B0D88081A0D8900136110E0E
:10029000006E002EFED793928A92492EEBD7938060
:1002A000110E006E002EFED78A904A50D8A493906B
:1002B0000000938281A2FED7110E006E002EFED7A1
:1002C0008A929392110E006E002EFED78A90939020
:1002D0009BEF01F09380110E006E002EFED79382EB
:1002E000110E006E002EFED78A909390110E006EB4
:1002F000002EFED78A9293923C0E486E3DDF46C098
:1003000048F03ADF9380110E006E002EFED79382E4
:10031000110E006E002EFED781A2FED78A90939018
:10032000110E006E002EFED78A9293923D0E486EFB
:1003300023DF006A9BD701C047F0939000009382AF
:1003400081A2FED7110E006E002EFED700D0000055
:100350009380110E006E002EFED7036A47C001F095
:1003600003C002F01200040E466EB4DF01C00BF0B1
:10037000030E466EAFDF01C00CF0080E466EAADF1A
:1003800001C00DF0070E466EA5DF01C00EF0060E8F
:10039000466EA0DF01C00FF0050E466E9BDF01C068
:1003A00010F00CC012F00BC011F00EC014F00DC014
:1003B00013F010C016F00FC015F014EF06F0512C1A
:1003C00001D003D0400E526E01D0526A010E505C33
:1003D000522652508009536E546A556E74DE1200D4
:1003E0004F50070A07E00B0A0AE0060A10E0020A6B
:1003F00014E018D0010E506E516EE1DF18D0546A2F
:10040000010E556E60DE020E506E10DE10D0010E31
:10041000506E020E516ED3DF0AD0546A100E556E24
:1004200052DE05D0010E546E4FC055F04CDE120066
:10043000EACF4EF0E9CF4DF047AE08D04D8E4DA833
:100440004D2A461E471E462AD8B4472A4738F00987
:10045000496E4926E20F4A6E320F4C6E47500F0B21
:100460004A264A264C26E90F4B6E4B264B26463829
:100470000F0B4B264C264B364C364C1E4C364650FA
:100480000F0B4C264936070E486E0A0E4B064C26BB
:10049000FDE34A064B26FDE349064A26FDE34806EE
:1004A0004926FDE3EA6A480EE96E070E4D144D9C9D
:1004B000ED524D1407E14DB8EE524DB803D0200E69
:1004C000006E20D0E926000EEA22E9504C0803E134
:1004D000EA5201E14D8CEF50006E08E14DBC06D0B0
:1004E0004DB81BD04DB602D0200E0BD04DAE06D06D
:1004F0002D0E006EED504D9C4D9E04D04D864D98B6
:10050000300E0026EACF47F0E9CF46F000C04FF0AA
:1005100067DF47C0EAFF46C0E9FFEE504DACD5D7D4
:10052000120093948A9493988A9893968A86B9EF46
:1005300003F093968A96030E006E002EFED700D02D
:10054000466A46500F080EE3938881B802D0D890CF
:1005500001D0D8804736483693948A8493948A94FD
:10056000462AEFD70A9047B40A8093968A8647C0F6
:1005700001F048C002F0BDEF03F04930036E48308F
:10058000026E03320232033202321F0E031602C021
:1005900000F00F0E031602C001F003C002F0C6EF18
:1005A00003F08E0E006E4BC001F04AC002F0036AE9
:1005B000015209E102C001F0026A080E005E015218
:1005C00002E1006A08D0D89001BE04D0023601369C
:1005D0000006F9D7019EA0EF03F04E50D8B4A5D085
:1005E0005A6E5250D8B4A1D05A5E05E37F0E5A26F7
:1005F000D8B09BD006D0810E5A5ED8A096D0D8B481
:1006000094D05AC000F0016A026A036A596A4FC066
:1006100058F0588E50C057F051C056F0190E5A6E0F
:100620005550565E0DE2010E575E0AE2585E08E232
:10063000595E06E2592A582A572A5550562628D07C
:100640005450575E12E2010E585E0FE2595E0DE201
:10065000592A582A545057265550562619E3572AD6
:1006600017E1582A15E1592A13D053508009585ED2
:100670000EE2010E595E0BE2592A535080095826AA
:1006800054505726E9E3582AE7E1592AE5D7038071
:100690005A2E01D00BD0D890563657365836593688
:1006A000D8900336023601365B36BAD75BA006D047
:1006B000D8900132023203325B3202D0000635E0BC
:1006C0005BBE1ED0D89056365736583659365550E0
:1006D000565E07E2010E575E04E2585E02E2595E82
:1006E0001AE35450575E05E2010E585E02E2595E6D
:1006F00012E353508009585E03E2010E595E0BE38A
:10070000032A09E1022A07E1012A05E1002A0DE096
:100710000132023203324FC05AF053505A1A5AAEC5
:1007200002D0018E06D0019E04D0006A016A026ADE
:10073000036AB6EF03F049C04BF048C04AF031D726
:1007400003C04DF002C04CF001C04BF000C04AF0B5
:1007500003C051F002C050F001C04FF000C04EF095
:10076000556A546A536A810E526E37D7CFEF03F041
:10077000D8D6C80E506E5ADCDCD602C047F001C095
:1007800046F002C049F001C048F0F7D602C047F079
:1007900001C046F002C049F001C048F0CCD742EF9A
:1007A00006F05750D8B471D0006E5B50D8B46DD0FD
:1007B000002604E3810E002668E204D07F0E005E6E
:1007C00064E363E058C05FF05C505F1A588E5C8E43
:1007D0005A505E02F4CF61F059505D02F4CF03F03D
:1007E000F3CF60F05E02F3506127F4506023000EF7
:1007F00003225A505D02F3506127F4506023000E2B
:10080000026A0322022258505E02F3506027F4501D
:100810000322000E022258505D02F3500326F450CA
:100820000222000E016A01225A505C02F350602736
:10083000F4500322000E0222012259505C02F350B0
:100840000326F4500222000E012258505C02F3509D
:100850000226F4500122002A01BE05D0603703367B
:10086000023601360006000E60AF0AD0032A0222CB
:100870000122015005E1025003E1035001E1002A89
:100880005FBE018E5FAE019E04D0006A016A026AFB
:10089000036AD4EF04F05750B608576E036A58C085
:1008A0005BF0588ED890583259325A3203320232A5
:1008B00001320032572EF6D75BAE0BD0001E011E60
:1008C000021E031E002AD8B4012AD8B4022AD8B4C2
:1008D000032AE7EF04F0D8B203D0EA6A5F0EE96EAC
:1008E000006A016A026A036A5F6A606B616B626B2D
:1008F0005E505D105C105B102CE0200E636FD89092
:100900005736583659365A365F3660376137623750
:100910005E50625D08E15D50615D05E15C50605DC7
:1009200002E15B505F5C0FE35B505F5E5C50D8A000
:100930005C3C605F5D50D8A05D3C615F5E50D8A0BC
:100940005E3C625FD8800036013602360336632F84
:10095000D6D75FC0EFFF60C0ECFF61C0ECFF62C0A4
:10096000ECFF120045C0EAFF44C0E9FF57C0EFFFAB
:10097000E92AD8B4EA2AEF6A442AD8B4452A1200F0
:10098000E9504F6E4E50516E19E04DC05AF04CC0B8
:1009900059F04BC058F04AC057F05E6A5D6A200EAD
:1009A0005C6E820E5B6EFDD603C04DF002C04CF053
:1009B00001C04BF000C04AF0512EE7D74DC05AF0AD
:1009C0004CC059F04BC058F04AC057F064D703C030
:1009D0004DF002C04CF001C04BF000C04AF04DAEEB
:1009E0000DD04F064F8A4A1E4B1E4C1E4D1E4A2AE2
:1009F000D8B44B2AD8B44C2AD8B44D2A3B0E566EE4
:100A00009A0E556ECA0E546E536A0A0E516E4E50AF
:100A1000D8B44F2AD882EA6A4A0EE96E4DC05AF01D
:100A20004CC059F04BC058F04AC057F056C05EF069
:100A300055C05DF054C05CF053C05BF04CDF01501A
:100A400000520FE14E28515C0CE04F500CE00F0BB0
:100A5000515C01E037E24FBE35D04FBC04D0200ED0
:100A60002DD0200E4F164FAA0CD04F9A4E50D8A41E
:100A70004F0600504F6E2D0E576E74DF4F50006EB4
:100A80004F6A4E50515C0AE100504F6E2E0E576E69
:100A900069DF4F50006E200E4F16000E300E4FAA29
:100AA0000DD04F9A4E50D8A44F0600504F6E2D0EC9
:100AB000576E58DF4F50006E4F6A300E002600C050
:100AC00057F050DFD89256C05AF055C059F054C074
:100AD00058F053C057F05E6A5D6A5C6A0A0E5B6E3E
:100AE000FADE03C056F002C055F001C054F000C059
:100AF00053F0512E8FD75AEF06F00900F6CF4BF086
:100B0000F7CF4CF0F5CF57F02DDF4BC0F6FF4CC0C0
:100B1000F7FF4A2EF2D761EF06F00900F5520DE01B
:100B2000F6CF46F0F7CF47F0F5509EA8FED7AD6E52
:100B300046C0F6FF47C0F7FFF0D76DEF06F0EF5263
:100B400010E0EACF47F0E9CF46F0EF509EA8FED77D
:100B5000AD6E47C0EAFF46C0E9FFE92AD8B4EA2AE9
:100B6000EED76DEF06F0EF520FE0EACF47F0E9CF96
:100B700046F0EFCF4FF034DC47C0EAFF46C0E9FF54
:100B8000E92AD8B4EA2AEFD777EF06F0F86AD09EC0
:100B9000700ED36ED26A9B6AB886E10EAF6E040EF9
:100BA000B06EA60EAC6E900EAB6E126A116A146A2D
:100BB000136A166A156A1E6A1D6A226A216A206A09
:100BC0001F6A236A456A446AC150F00BC16E000E69
:100BD0000F015B6F5F6F5C6F5D6F5E6F0101886B14
:100BE0009A6A996A986A046A056A000180EF00F0BF
:100BF0001EEF01F0C150F00BC16E010E0F015B6FD3
:100C0000000E5F6F5C6F5D6F5E6FC050C00B0709B9
:100C1000C06EC08EC280000E016EC250830B0110E8
:100C2000C26E0001B3EF01F0010E506E516EDFECA9
:100C300001F0100EE96E12C047F011C046F018EC3A
:100C400002F02C0E4F6EF0EC01F0200E4F6EF0EC27
:100C500001F0100EE96E14C047F013C046F018EC16
:100C600002F02C0E4F6EF0EC01F0200E4F6EF0EC07
:100C700001F0100EE96E16C047F015C046F018ECF2
:100C800002F076D503C049F002C048F001C047F039
:100C900000C046F0456A240E446E890EE96E03C01A
:100CA0004DF002C04CF001C04BF000C04AF0020E03
:100CB0004E6E66D6090EF66E000EF76E030E4A6E85
:100CC0001CD70AA006D00E0EF66E000EF76E25D7C2
:100CD00004D0EA6A240EE96E32D7010E506E020E7D
:100CE000516EDFEC01F0EA6A240EE96E3CD7020E89
:100CF000466EFA0E506E16EC00F0462EFAD792D7DA
:020D00000300EE
:020000040030CA
:0E00000023085E3C00D3A1000FC00FE00F40AC
:00000001FF
;PIC18F45K50
;CRC=F126  CREATED="16-ene.-17 16:22"
